{
  "_format": "hh-sol-artifact-1",
  "contractName": "ArcTalentsSBT",
  "sourceName": "contracts/ArcTalentsSBT.sol",
  "abi": [
    {
      "inputs": [],
      "stateMutability": "nonpayable",
      "type": "constructor"
    },
    {
      "inputs": [
        {
          "internalType": "address",
          "name": "sender",
          "type": "address"
        },
        {
          "internalType": "uint256",
          "name": "tokenId",
          "type": "uint256"
        },
        {
          "internalType": "address",
          "name": "owner",
          "type": "address"
        }
      ],
      "name": "ERC721IncorrectOwner",
      "type": "error"
    },
    {
      "inputs": [
        {
          "internalType": "address",
          "name": "operator",
          "type": "address"
        },
        {
          "internalType": "uint256",
          "name": "tokenId",
          "type": "uint256"
        }
      ],
      "name": "ERC721InsufficientApproval",
      "type": "error"
    },
    {
      "inputs": [
        {
          "internalType": "address",
          "name": "approver",
          "type": "address"
        }
      ],
      "name": "ERC721InvalidApprover",
      "type": "error"
    },
    {
      "inputs": [
        {
          "internalType": "address",
          "name": "operator",
          "type": "address"
        }
      ],
      "name": "ERC721InvalidOperator",
      "type": "error"
    },
    {
      "inputs": [
        {
          "internalType": "address",
          "name": "owner",
          "type": "address"
        }
      ],
      "name": "ERC721InvalidOwner",
      "type": "error"
    },
    {
      "inputs": [
        {
          "internalType": "address",
          "name": "receiver",
          "type": "address"
        }
      ],
      "name": "ERC721InvalidReceiver",
      "type": "error"
    },
    {
      "inputs": [
        {
          "internalType": "address",
          "name": "sender",
          "type": "address"
        }
      ],
      "name": "ERC721InvalidSender",
      "type": "error"
    },
    {
      "inputs": [
        {
          "internalType": "uint256",
          "name": "tokenId",
          "type": "uint256"
        }
      ],
      "name": "ERC721NonexistentToken",
      "type": "error"
    },
    {
      "inputs": [
        {
          "internalType": "address",
          "name": "owner",
          "type": "address"
        }
      ],
      "name": "OwnableInvalidOwner",
      "type": "error"
    },
    {
      "inputs": [
        {
          "internalType": "address",
          "name": "account",
          "type": "address"
        }
      ],
      "name": "OwnableUnauthorizedAccount",
      "type": "error"
    },
    {
      "anonymous": false,
      "inputs": [
        {
          "indexed": true,
          "internalType": "address",
          "name": "owner",
          "type": "address"
        },
        {
          "indexed": true,
          "internalType": "address",
          "name": "approved",
          "type": "address"
        },
        {
          "indexed": true,
          "internalType": "uint256",
          "name": "tokenId",
          "type": "uint256"
        }
      ],
      "name": "Approval",
      "type": "event"
    },
    {
      "anonymous": false,
      "inputs": [
        {
          "indexed": true,
          "internalType": "address",
          "name": "owner",
          "type": "address"
        },
        {
          "indexed": true,
          "internalType": "address",
          "name": "operator",
          "type": "address"
        },
        {
          "indexed": false,
          "internalType": "bool",
          "name": "approved",
          "type": "bool"
        }
      ],
      "name": "ApprovalForAll",
      "type": "event"
    },
    {
      "anonymous": false,
      "inputs": [
        {
          "indexed": true,
          "internalType": "address",
          "name": "previousOwner",
          "type": "address"
        },
        {
          "indexed": true,
          "internalType": "address",
          "name": "newOwner",
          "type": "address"
        }
      ],
      "name": "OwnershipTransferred",
      "type": "event"
    },
    {
      "anonymous": false,
      "inputs": [
        {
          "indexed": true,
          "internalType": "address",
          "name": "from",
          "type": "address"
        },
        {
          "indexed": true,
          "internalType": "address",
          "name": "to",
          "type": "address"
        },
        {
          "indexed": true,
          "internalType": "uint256",
          "name": "tokenId",
          "type": "uint256"
        }
      ],
      "name": "Transfer",
      "type": "event"
    },
    {
      "inputs": [
        {
          "internalType": "address",
          "name": "to",
          "type": "address"
        },
        {
          "internalType": "uint256",
          "name": "tokenId",
          "type": "uint256"
        }
      ],
      "name": "approve",
      "outputs": [],
      "stateMutability": "nonpayable",
      "type": "function"
    },
    {
      "inputs": [
        {
          "internalType": "uint256",
          "name": "",
          "type": "uint256"
        }
      ],
      "name": "badgeNames",
      "outputs": [
        {
          "internalType": "string",
          "name": "",
          "type": "string"
        }
      ],
      "stateMutability": "view",
      "type": "function"
    },
    {
      "inputs": [
        {
          "internalType": "address",
          "name": "owner",
          "type": "address"
        }
      ],
      "name": "balanceOf",
      "outputs": [
        {
          "internalType": "uint256",
          "name": "",
          "type": "uint256"
        }
      ],
      "stateMutability": "view",
      "type": "function"
    },
    {
      "inputs": [
        {
          "internalType": "uint256",
          "name": "tokenId",
          "type": "uint256"
        }
      ],
      "name": "getApproved",
      "outputs": [
        {
          "internalType": "address",
          "name": "",
          "type": "address"
        }
      ],
      "stateMutability": "view",
      "type": "function"
    },
    {
      "inputs": [
        {
          "internalType": "uint256",
          "name": "tokenId",
          "type": "uint256"
        }
      ],
      "name": "getBadgeName",
      "outputs": [
        {
          "internalType": "string",
          "name": "",
          "type": "string"
        }
      ],
      "stateMutability": "view",
      "type": "function"
    },
    {
      "inputs": [
        {
          "internalType": "address",
          "name": "owner",
          "type": "address"
        },
        {
          "internalType": "address",
          "name": "operator",
          "type": "address"
        }
      ],
      "name": "isApprovedForAll",
      "outputs": [
        {
          "internalType": "bool",
          "name": "",
          "type": "bool"
        }
      ],
      "stateMutability": "view",
      "type": "function"
    },
    {
      "inputs": [
        {
          "internalType": "address",
          "name": "to",
          "type": "address"
        },
        {
          "internalType": "string",
          "name": "badgeName",
          "type": "string"
        }
      ],
      "name": "mint",
      "outputs": [
        {
          "internalType": "uint256",
          "name": "",
          "type": "uint256"
        }
      ],
      "stateMutability": "nonpayable",
      "type": "function"
    },
    {
      "inputs": [],
      "name": "name",
      "outputs": [
        {
          "internalType": "string",
          "name": "",
          "type": "string"
        }
      ],
      "stateMutability": "view",
      "type": "function"
    },
    {
      "inputs": [],
      "name": "owner",
      "outputs": [
        {
          "internalType": "address",
          "name": "",
          "type": "address"
        }
      ],
      "stateMutability": "view",
      "type": "function"
    },
    {
      "inputs": [
        {
          "internalType": "uint256",
          "name": "tokenId",
          "type": "uint256"
        }
      ],
      "name": "ownerOf",
      "outputs": [
        {
          "internalType": "address",
          "name": "",
          "type": "address"
        }
      ],
      "stateMutability": "view",
      "type": "function"
    },
    {
      "inputs": [],
      "name": "renounceOwnership",
      "outputs": [],
      "stateMutability": "nonpayable",
      "type": "function"
    },
    {
      "inputs": [
        {
          "internalType": "address",
          "name": "from",
          "type": "address"
        },
        {
          "internalType": "address",
          "name": "to",
          "type": "address"
        },
        {
          "internalType": "uint256",
          "name": "tokenId",
          "type": "uint256"
        }
      ],
      "name": "safeTransferFrom",
      "outputs": [],
      "stateMutability": "nonpayable",
      "type": "function"
    },
    {
      "inputs": [
        {
          "internalType": "address",
          "name": "from",
          "type": "address"
        },
        {
          "internalType": "address",
          "name": "to",
          "type": "address"
        },
        {
          "internalType": "uint256",
          "name": "tokenId",
          "type": "uint256"
        },
        {
          "internalType": "bytes",
          "name": "data",
          "type": "bytes"
        }
      ],
      "name": "safeTransferFrom",
      "outputs": [],
      "stateMutability": "nonpayable",
      "type": "function"
    },
    {
      "inputs": [
        {
          "internalType": "address",
          "name": "operator",
          "type": "address"
        },
        {
          "internalType": "bool",
          "name": "approved",
          "type": "bool"
        }
      ],
      "name": "setApprovalForAll",
      "outputs": [],
      "stateMutability": "nonpayable",
      "type": "function"
    },
    {
      "inputs": [
        {
          "internalType": "bytes4",
          "name": "interfaceId",
          "type": "bytes4"
        }
      ],
      "name": "supportsInterface",
      "outputs": [
        {
          "internalType": "bool",
          "name": "",
          "type": "bool"
        }
      ],
      "stateMutability": "view",
      "type": "function"
    },
    {
      "inputs": [],
      "name": "symbol",
      "outputs": [
        {
          "internalType": "string",
          "name": "",
          "type": "string"
        }
      ],
      "stateMutability": "view",
      "type": "function"
    },
    {
      "inputs": [
        {
          "internalType": "uint256",
          "name": "tokenId",
          "type": "uint256"
        }
      ],
      "name": "tokenURI",
      "outputs": [
        {
          "internalType": "string",
          "name": "",
          "type": "string"
        }
      ],
      "stateMutability": "view",
      "type": "function"
    },
    {
      "inputs": [
        {
          "internalType": "address",
          "name": "from",
          "type": "address"
        },
        {
          "internalType": "address",
          "name": "to",
          "type": "address"
        },
        {
          "internalType": "uint256",
          "name": "tokenId",
          "type": "uint256"
        }
      ],
      "name": "transferFrom",
      "outputs": [],
      "stateMutability": "nonpayable",
      "type": "function"
    },
    {
      "inputs": [
        {
          "internalType": "address",
          "name": "newOwner",
          "type": "address"
        }
      ],
      "name": "transferOwnership",
      "outputs": [],
      "stateMutability": "nonpayable",
      "type": "function"
    }
  ],
  "bytecode": "0x608060405234801562000010575f80fd5b50336040518060400160405280601181526020017f41726354616c656e7473204261646765730000000000000000000000000000008152506040518060400160405280600481526020017f4152544200000000000000000000000000000000000000000000000000000000815250815f90816200008e919062000455565b508060019081620000a0919062000455565b5050505f73ffffffffffffffffffffffffffffffffffffffff168173ffffffffffffffffffffffffffffffffffffffff160362000116575f6040517f1e4fbdf70000000000000000000000000000000000000000000000000000000081526004016200010d91906200057c565b60405180910390fd5b62000127816200012e60201b60201c565b5062000597565b5f60065f9054906101000a900473ffffffffffffffffffffffffffffffffffffffff1690508160065f6101000a81548173ffffffffffffffffffffffffffffffffffffffff021916908373ffffffffffffffffffffffffffffffffffffffff1602179055508173ffffffffffffffffffffffffffffffffffffffff168173ffffffffffffffffffffffffffffffffffffffff167f8be0079c531659141344cd1fd0a4f28419497f9722a3daafe3b4186f6b6457e060405160405180910390a35050565b5f81519050919050565b7f4e487b71000000000000000000000000000000000000000000000000000000005f52604160045260245ffd5b7f4e487b71000000000000000000000000000000000000000000000000000000005f52602260045260245ffd5b5f60028204905060018216806200026d57607f821691505b60208210810362000283576200028262000228565b5b50919050565b5f819050815f5260205f209050919050565b5f6020601f8301049050919050565b5f82821b905092915050565b5f60088302620002e77fffffffffffffffffffffffffffffffffffffffffffffffffffffffffffffffff82620002aa565b620002f38683620002aa565b95508019841693508086168417925050509392505050565b5f819050919050565b5f819050919050565b5f6200033d6200033762000331846200030b565b62000314565b6200030b565b9050919050565b5f819050919050565b62000358836200031d565b62000370620003678262000344565b848454620002b6565b825550505050565b5f90565b6200038662000378565b620003938184846200034d565b505050565b5b81811015620003ba57620003ae5f826200037c565b60018101905062000399565b5050565b601f8211156200040957620003d38162000289565b620003de846200029b565b81016020851015620003ee578190505b62000406620003fd856200029b565b83018262000398565b50505b505050565b5f82821c905092915050565b5f6200042b5f19846008026200040e565b1980831691505092915050565b5f6200044583836200041a565b9150826002028217905092915050565b6200046082620001f1565b67ffffffffffffffff8111156200047c576200047b620001fb565b5b62000488825462000255565b62000495828285620003be565b5f60209050601f831160018114620004cb575f8415620004b6578287015190505b620004c2858262000438565b86555062000531565b601f198416620004db8662000289565b5f5b828110156200050457848901518255600182019150602085019450602081019050620004dd565b8683101562000524578489015162000520601f8916826200041a565b8355505b6001600288020188555050505b505050505050565b5f73ffffffffffffffffffffffffffffffffffffffff82169050919050565b5f620005648262000539565b9050919050565b620005768162000558565b82525050565b5f602082019050620005915f8301846200056b565b92915050565b61277d80620005a55f395ff3fe608060405234801561000f575f80fd5b506004361061011f575f3560e01c8063715018a6116100ab578063c87b56dd1161006f578063c87b56dd14610303578063d0def52114610333578063d9983b4914610363578063e985e9c514610393578063f2fde38b146103c35761011f565b8063715018a6146102855780638da5cb5b1461028f57806395d89b41146102ad578063a22cb465146102cb578063b88d4fde146102e75761011f565b806323b872dd116100f257806323b872dd146101bd57806338bca355146101d957806342842e0e146102095780636352211e1461022557806370a08231146102555761011f565b806301ffc9a71461012357806306fdde0314610153578063081812fc14610171578063095ea7b3146101a1575b5f80fd5b61013d60048036038101906101389190611ba8565b6103df565b60405161014a9190611bed565b60405180910390f35b61015b6104c0565b6040516101689190611c90565b60405180910390f35b61018b60048036038101906101869190611ce3565b61054f565b6040516101989190611d4d565b60405180910390f35b6101bb60048036038101906101b69190611d90565b61056a565b005b6101d760048036038101906101d29190611dce565b610580565b005b6101f360048036038101906101ee9190611ce3565b61067f565b6040516102009190611c90565b60405180910390f35b610223600480360381019061021e9190611dce565b61072a565b005b61023f600480360381019061023a9190611ce3565b610749565b60405161024c9190611d4d565b60405180910390f35b61026f600480360381019061026a9190611e1e565b61075a565b60405161027c9190611e58565b60405180910390f35b61028d610810565b005b610297610823565b6040516102a49190611d4d565b60405180910390f35b6102b561084b565b6040516102c29190611c90565b60405180910390f35b6102e560048036038101906102e09190611e9b565b6108db565b005b61030160048036038101906102fc9190612005565b6108f1565b005b61031d60048036038101906103189190611ce3565b610916565b60405161032a9190611c90565b60405180910390f35b61034d60048036038101906103489190612123565b61097c565b60405161035a9190611e58565b60405180910390f35b61037d60048036038101906103789190611ce3565b6109d5565b60405161038a9190611c90565b60405180910390f35b6103ad60048036038101906103a8919061217d565b610a70565b6040516103ba9190611bed565b60405180910390f35b6103dd60048036038101906103d89190611e1e565b610afe565b005b5f7f80ac58cd000000000000000000000000000000000000000000000000000000007bffffffffffffffffffffffffffffffffffffffffffffffffffffffff1916827bffffffffffffffffffffffffffffffffffffffffffffffffffffffff191614806104a957507f5b5e139f000000000000000000000000000000000000000000000000000000007bffffffffffffffffffffffffffffffffffffffffffffffffffffffff1916827bffffffffffffffffffffffffffffffffffffffffffffffffffffffff1916145b806104b957506104b882610b82565b5b9050919050565b60605f80546104ce906121e8565b80601f01602080910402602001604051908101604052809291908181526020018280546104fa906121e8565b80156105455780601f1061051c57610100808354040283529160200191610545565b820191905f5260205f20905b81548152906001019060200180831161052857829003601f168201915b5050505050905090565b5f61055982610beb565b5061056382610c71565b9050919050565b61057c8282610577610caa565b610cb1565b5050565b5f73ffffffffffffffffffffffffffffffffffffffff168273ffffffffffffffffffffffffffffffffffffffff16036105f0575f6040517f64a0ae920000000000000000000000000000000000000000000000000000000081526004016105e79190611d4d565b60405180910390fd5b5f61060383836105fe610caa565b610cc3565b90508373ffffffffffffffffffffffffffffffffffffffff168173ffffffffffffffffffffffffffffffffffffffff1614610679578382826040517f64283d7b00000000000000000000000000000000000000000000000000000000815260040161067093929190612218565b60405180910390fd5b50505050565b606061068a82610beb565b5060085f8381526020019081526020015f2080546106a7906121e8565b80601f01602080910402602001604051908101604052809291908181526020018280546106d3906121e8565b801561071e5780601f106106f55761010080835404028352916020019161071e565b820191905f5260205f20905b81548152906001019060200180831161070157829003601f168201915b50505050509050919050565b61074483838360405180602001604052805f8152506108f1565b505050565b5f61075382610beb565b9050919050565b5f8073ffffffffffffffffffffffffffffffffffffffff168273ffffffffffffffffffffffffffffffffffffffff16036107cb575f6040517f89c62b640000000000000000000000000000000000000000000000000000000081526004016107c29190611d4d565b60405180910390fd5b60035f8373ffffffffffffffffffffffffffffffffffffffff1673ffffffffffffffffffffffffffffffffffffffff1681526020019081526020015f20549050919050565b610818610d89565b6108215f610e10565b565b5f60065f9054906101000a900473ffffffffffffffffffffffffffffffffffffffff16905090565b60606001805461085a906121e8565b80601f0160208091040260200160405190810160405280929190818152602001828054610886906121e8565b80156108d15780601f106108a8576101008083540402835291602001916108d1565b820191905f5260205f20905b8154815290600101906020018083116108b457829003601f168201915b5050505050905090565b6108ed6108e6610caa565b8383610ed3565b5050565b6108fc848484610580565b610910610907610caa565b858585856110ac565b50505050565b606061092182610beb565b505f61092b611258565b90505f8151116109495760405180602001604052805f815250610974565b806109538461126e565b604051602001610964929190612287565b6040516020818303038152906040525b915050919050565b5f610985610d89565b5f600754905060075f81548092919061099d906122d7565b91905055506109ac8482611338565b8260085f8381526020019081526020015f2090816109ca91906124bb565b508091505092915050565b6008602052805f5260405f205f9150905080546109f1906121e8565b80601f0160208091040260200160405190810160405280929190818152602001828054610a1d906121e8565b8015610a685780601f10610a3f57610100808354040283529160200191610a68565b820191905f5260205f20905b815481529060010190602001808311610a4b57829003601f168201915b505050505081565b5f60055f8473ffffffffffffffffffffffffffffffffffffffff1673ffffffffffffffffffffffffffffffffffffffff1681526020019081526020015f205f8373ffffffffffffffffffffffffffffffffffffffff1673ffffffffffffffffffffffffffffffffffffffff1681526020019081526020015f205f9054906101000a900460ff16905092915050565b610b06610d89565b5f73ffffffffffffffffffffffffffffffffffffffff168173ffffffffffffffffffffffffffffffffffffffff1603610b76575f6040517f1e4fbdf7000000000000000000000000000000000000000000000000000000008152600401610b6d9190611d4d565b60405180910390fd5b610b7f81610e10565b50565b5f7f01ffc9a7000000000000000000000000000000000000000000000000000000007bffffffffffffffffffffffffffffffffffffffffffffffffffffffff1916827bffffffffffffffffffffffffffffffffffffffffffffffffffffffff1916149050919050565b5f80610bf683611355565b90505f73ffffffffffffffffffffffffffffffffffffffff168173ffffffffffffffffffffffffffffffffffffffff1603610c6857826040517f7e273289000000000000000000000000000000000000000000000000000000008152600401610c5f9190611e58565b60405180910390fd5b80915050919050565b5f60045f8381526020019081526020015f205f9054906101000a900473ffffffffffffffffffffffffffffffffffffffff169050919050565b5f33905090565b610cbe838383600161138e565b505050565b5f80610cce84611355565b90505f73ffffffffffffffffffffffffffffffffffffffff168173ffffffffffffffffffffffffffffffffffffffff161480610d3557505f73ffffffffffffffffffffffffffffffffffffffff168573ffffffffffffffffffffffffffffffffffffffff16145b610d74576040517f08c379a0000000000000000000000000000000000000000000000000000000008152600401610d6b906125fa565b60405180910390fd5b610d7f85858561154d565b9150509392505050565b610d91610caa565b73ffffffffffffffffffffffffffffffffffffffff16610daf610823565b73ffffffffffffffffffffffffffffffffffffffff1614610e0e57610dd2610caa565b6040517f118cdaa7000000000000000000000000000000000000000000000000000000008152600401610e059190611d4d565b60405180910390fd5b565b5f60065f9054906101000a900473ffffffffffffffffffffffffffffffffffffffff1690508160065f6101000a81548173ffffffffffffffffffffffffffffffffffffffff021916908373ffffffffffffffffffffffffffffffffffffffff1602179055508173ffffffffffffffffffffffffffffffffffffffff168173ffffffffffffffffffffffffffffffffffffffff167f8be0079c531659141344cd1fd0a4f28419497f9722a3daafe3b4186f6b6457e060405160405180910390a35050565b5f73ffffffffffffffffffffffffffffffffffffffff168373ffffffffffffffffffffffffffffffffffffffff1603610f43575f6040517fa9fbf51f000000000000000000000000000000000000000000000000000000008152600401610f3a9190611d4d565b60405180910390fd5b5f73ffffffffffffffffffffffffffffffffffffffff168273ffffffffffffffffffffffffffffffffffffffff1603610fb357816040517f5b08ba18000000000000000000000000000000000000000000000000000000008152600401610faa9190611d4d565b60405180910390fd5b8060055f8573ffffffffffffffffffffffffffffffffffffffff1673ffffffffffffffffffffffffffffffffffffffff1681526020019081526020015f205f8473ffffffffffffffffffffffffffffffffffffffff1673ffffffffffffffffffffffffffffffffffffffff1681526020019081526020015f205f6101000a81548160ff0219169083151502179055508173ffffffffffffffffffffffffffffffffffffffff168373ffffffffffffffffffffffffffffffffffffffff167f17307eab39ab6107e8899845ad3d59bd9653f200f220920489ca2b5937696c318360405161109f9190611bed565b60405180910390a3505050565b5f8373ffffffffffffffffffffffffffffffffffffffff163b1115611251578273ffffffffffffffffffffffffffffffffffffffff1663150b7a02868685856040518563ffffffff1660e01b815260040161110a949392919061266a565b6020604051808303815f875af192505050801561114557506040513d601f19601f8201168201806040525081019061114291906126c8565b60015b6111c6573d805f8114611173576040519150601f19603f3d011682016040523d82523d5f602084013e611178565b606091505b505f8151036111be57836040517f64a0ae920000000000000000000000000000000000000000000000000000000081526004016111b59190611d4d565b60405180910390fd5b805160208201fd5b63150b7a0260e01b7bffffffffffffffffffffffffffffffffffffffffffffffffffffffff1916817bffffffffffffffffffffffffffffffffffffffffffffffffffffffff19161461124f57836040517f64a0ae920000000000000000000000000000000000000000000000000000000081526004016112469190611d4d565b60405180910390fd5b505b5050505050565b606060405180602001604052805f815250905090565b60605f600161127c84611758565b0190505f8167ffffffffffffffff81111561129a57611299611ee1565b5b6040519080825280601f01601f1916602001820160405280156112cc5781602001600182028036833780820191505090505b5090505f82602083010190505b60011561132d578080600190039150507f3031323334353637383961626364656600000000000000000000000000000000600a86061a8153600a8581611322576113216126f3565b5b0494505f85036112d9575b819350505050919050565b611351828260405180602001604052805f8152506118a9565b5050565b5f60025f8381526020019081526020015f205f9054906101000a900473ffffffffffffffffffffffffffffffffffffffff169050919050565b80806113c657505f73ffffffffffffffffffffffffffffffffffffffff168273ffffffffffffffffffffffffffffffffffffffff1614155b156114f8575f6113d584610beb565b90505f73ffffffffffffffffffffffffffffffffffffffff168373ffffffffffffffffffffffffffffffffffffffff161415801561143f57508273ffffffffffffffffffffffffffffffffffffffff168173ffffffffffffffffffffffffffffffffffffffff1614155b801561145257506114508184610a70565b155b1561149457826040517fa9fbf51f00000000000000000000000000000000000000000000000000000000815260040161148b9190611d4d565b60405180910390fd5b81156114f657838573ffffffffffffffffffffffffffffffffffffffff168273ffffffffffffffffffffffffffffffffffffffff167f8c5be1e5ebec7d5bd14f71427d1e84f3dd0314c0f7b2291e5b200ac8c7c3b92560405160405180910390a45b505b8360045f8581526020019081526020015f205f6101000a81548173ffffffffffffffffffffffffffffffffffffffff021916908373ffffffffffffffffffffffffffffffffffffffff16021790555050505050565b5f8061155884611355565b90505f73ffffffffffffffffffffffffffffffffffffffff168373ffffffffffffffffffffffffffffffffffffffff1614611599576115988184866118cc565b5b5f73ffffffffffffffffffffffffffffffffffffffff168173ffffffffffffffffffffffffffffffffffffffff1614611624576115d85f855f8061138e565b600160035f8373ffffffffffffffffffffffffffffffffffffffff1673ffffffffffffffffffffffffffffffffffffffff1681526020019081526020015f205f82825403925050819055505b5f73ffffffffffffffffffffffffffffffffffffffff168573ffffffffffffffffffffffffffffffffffffffff16146116a357600160035f8773ffffffffffffffffffffffffffffffffffffffff1673ffffffffffffffffffffffffffffffffffffffff1681526020019081526020015f205f82825401925050819055505b8460025f8681526020019081526020015f205f6101000a81548173ffffffffffffffffffffffffffffffffffffffff021916908373ffffffffffffffffffffffffffffffffffffffff160217905550838573ffffffffffffffffffffffffffffffffffffffff168273ffffffffffffffffffffffffffffffffffffffff167fddf252ad1be2c89b69c2b068fc378daa952ba7f163c4a11628f55a4df523b3ef60405160405180910390a4809150509392505050565b5f805f90507a184f03e93ff9f4daa797ed6e38ed64bf6a1f01000000000000000083106117b4577a184f03e93ff9f4daa797ed6e38ed64bf6a1f01000000000000000083816117aa576117a96126f3565b5b0492506040810190505b6d04ee2d6d415b85acef810000000083106117f1576d04ee2d6d415b85acef810000000083816117e7576117e66126f3565b5b0492506020810190505b662386f26fc10000831061182057662386f26fc100008381611816576118156126f3565b5b0492506010810190505b6305f5e1008310611849576305f5e100838161183f5761183e6126f3565b5b0492506008810190505b612710831061186e576127108381611864576118636126f3565b5b0492506004810190505b606483106118915760648381611887576118866126f3565b5b0492506002810190505b600a83106118a0576001810190505b80915050919050565b6118b3838361198f565b6118c76118be610caa565b5f8585856110ac565b505050565b6118d7838383611a82565b61198a575f73ffffffffffffffffffffffffffffffffffffffff168373ffffffffffffffffffffffffffffffffffffffff160361194b57806040517f7e2732890000000000000000000000000000000000000000000000000000000081526004016119429190611e58565b60405180910390fd5b81816040517f177e802f000000000000000000000000000000000000000000000000000000008152600401611981929190612720565b60405180910390fd5b505050565b5f73ffffffffffffffffffffffffffffffffffffffff168273ffffffffffffffffffffffffffffffffffffffff16036119ff575f6040517f64a0ae920000000000000000000000000000000000000000000000000000000081526004016119f69190611d4d565b60405180910390fd5b5f611a0b83835f610cc3565b90505f73ffffffffffffffffffffffffffffffffffffffff168173ffffffffffffffffffffffffffffffffffffffff1614611a7d575f6040517f73c6ac6e000000000000000000000000000000000000000000000000000000008152600401611a749190611d4d565b60405180910390fd5b505050565b5f8073ffffffffffffffffffffffffffffffffffffffff168373ffffffffffffffffffffffffffffffffffffffff1614158015611b3957508273ffffffffffffffffffffffffffffffffffffffff168473ffffffffffffffffffffffffffffffffffffffff161480611afa5750611af98484610a70565b5b80611b3857508273ffffffffffffffffffffffffffffffffffffffff16611b2083610c71565b73ffffffffffffffffffffffffffffffffffffffff16145b5b90509392505050565b5f604051905090565b5f80fd5b5f80fd5b5f7fffffffff0000000000000000000000000000000000000000000000000000000082169050919050565b611b8781611b53565b8114611b91575f80fd5b50565b5f81359050611ba281611b7e565b92915050565b5f60208284031215611bbd57611bbc611b4b565b5b5f611bca84828501611b94565b91505092915050565b5f8115159050919050565b611be781611bd3565b82525050565b5f602082019050611c005f830184611bde565b92915050565b5f81519050919050565b5f82825260208201905092915050565b5f5b83811015611c3d578082015181840152602081019050611c22565b5f8484015250505050565b5f601f19601f8301169050919050565b5f611c6282611c06565b611c6c8185611c10565b9350611c7c818560208601611c20565b611c8581611c48565b840191505092915050565b5f6020820190508181035f830152611ca88184611c58565b905092915050565b5f819050919050565b611cc281611cb0565b8114611ccc575f80fd5b50565b5f81359050611cdd81611cb9565b92915050565b5f60208284031215611cf857611cf7611b4b565b5b5f611d0584828501611ccf565b91505092915050565b5f73ffffffffffffffffffffffffffffffffffffffff82169050919050565b5f611d3782611d0e565b9050919050565b611d4781611d2d565b82525050565b5f602082019050611d605f830184611d3e565b92915050565b611d6f81611d2d565b8114611d79575f80fd5b50565b5f81359050611d8a81611d66565b92915050565b5f8060408385031215611da657611da5611b4b565b5b5f611db385828601611d7c565b9250506020611dc485828601611ccf565b9150509250929050565b5f805f60608486031215611de557611de4611b4b565b5b5f611df286828701611d7c565b9350506020611e0386828701611d7c565b9250506040611e1486828701611ccf565b9150509250925092565b5f60208284031215611e3357611e32611b4b565b5b5f611e4084828501611d7c565b91505092915050565b611e5281611cb0565b82525050565b5f602082019050611e6b5f830184611e49565b92915050565b611e7a81611bd3565b8114611e84575f80fd5b50565b5f81359050611e9581611e71565b92915050565b5f8060408385031215611eb157611eb0611b4b565b5b5f611ebe85828601611d7c565b9250506020611ecf85828601611e87565b9150509250929050565b5f80fd5b5f80fd5b7f4e487b71000000000000000000000000000000000000000000000000000000005f52604160045260245ffd5b611f1782611c48565b810181811067ffffffffffffffff82111715611f3657611f35611ee1565b5b80604052505050565b5f611f48611b42565b9050611f548282611f0e565b919050565b5f67ffffffffffffffff821115611f7357611f72611ee1565b5b611f7c82611c48565b9050602081019050919050565b828183375f83830152505050565b5f611fa9611fa484611f59565b611f3f565b905082815260208101848484011115611fc557611fc4611edd565b5b611fd0848285611f89565b509392505050565b5f82601f830112611fec57611feb611ed9565b5b8135611ffc848260208601611f97565b91505092915050565b5f805f806080858703121561201d5761201c611b4b565b5b5f61202a87828801611d7c565b945050602061203b87828801611d7c565b935050604061204c87828801611ccf565b925050606085013567ffffffffffffffff81111561206d5761206c611b4f565b5b61207987828801611fd8565b91505092959194509250565b5f67ffffffffffffffff82111561209f5761209e611ee1565b5b6120a882611c48565b9050602081019050919050565b5f6120c76120c284612085565b611f3f565b9050828152602081018484840111156120e3576120e2611edd565b5b6120ee848285611f89565b509392505050565b5f82601f83011261210a57612109611ed9565b5b813561211a8482602086016120b5565b91505092915050565b5f806040838503121561213957612138611b4b565b5b5f61214685828601611d7c565b925050602083013567ffffffffffffffff81111561216757612166611b4f565b5b612173858286016120f6565b9150509250929050565b5f806040838503121561219357612192611b4b565b5b5f6121a085828601611d7c565b92505060206121b185828601611d7c565b9150509250929050565b7f4e487b71000000000000000000000000000000000000000000000000000000005f52602260045260245ffd5b5f60028204905060018216806121ff57607f821691505b602082108103612212576122116121bb565b5b50919050565b5f60608201905061222b5f830186611d3e565b6122386020830185611e49565b6122456040830184611d3e565b949350505050565b5f81905092915050565b5f61226182611c06565b61226b818561224d565b935061227b818560208601611c20565b80840191505092915050565b5f6122928285612257565b915061229e8284612257565b91508190509392505050565b7f4e487b71000000000000000000000000000000000000000000000000000000005f52601160045260245ffd5b5f6122e182611cb0565b91507fffffffffffffffffffffffffffffffffffffffffffffffffffffffffffffffff8203612313576123126122aa565b5b600182019050919050565b5f819050815f5260205f209050919050565b5f6020601f8301049050919050565b5f82821b905092915050565b5f6008830261237a7fffffffffffffffffffffffffffffffffffffffffffffffffffffffffffffffff8261233f565b612384868361233f565b95508019841693508086168417925050509392505050565b5f819050919050565b5f6123bf6123ba6123b584611cb0565b61239c565b611cb0565b9050919050565b5f819050919050565b6123d8836123a5565b6123ec6123e4826123c6565b84845461234b565b825550505050565b5f90565b6124006123f4565b61240b8184846123cf565b505050565b5b8181101561242e576124235f826123f8565b600181019050612411565b5050565b601f821115612473576124448161231e565b61244d84612330565b8101602085101561245c578190505b61247061246885612330565b830182612410565b50505b505050565b5f82821c905092915050565b5f6124935f1984600802612478565b1980831691505092915050565b5f6124ab8383612484565b9150826002028217905092915050565b6124c482611c06565b67ffffffffffffffff8111156124dd576124dc611ee1565b5b6124e782546121e8565b6124f2828285612432565b5f60209050601f831160018114612523575f8415612511578287015190505b61251b85826124a0565b865550612582565b601f1984166125318661231e565b5f5b8281101561255857848901518255600182019150602085019450602081019050612533565b868310156125755784890151612571601f891682612484565b8355505b6001600288020188555050505b505050505050565b7f5342543a20536f756c626f756e6420746f6b656e732063616e6e6f74206265205f8201527f7472616e73666572726564000000000000000000000000000000000000000000602082015250565b5f6125e4602b83611c10565b91506125ef8261258a565b604082019050919050565b5f6020820190508181035f830152612611816125d8565b9050919050565b5f81519050919050565b5f82825260208201905092915050565b5f61263c82612618565b6126468185612622565b9350612656818560208601611c20565b61265f81611c48565b840191505092915050565b5f60808201905061267d5f830187611d3e565b61268a6020830186611d3e565b6126976040830185611e49565b81810360608301526126a98184612632565b905095945050505050565b5f815190506126c281611b7e565b92915050565b5f602082840312156126dd576126dc611b4b565b5b5f6126ea848285016126b4565b91505092915050565b7f4e487b71000000000000000000000000000000000000000000000000000000005f52601260045260245ffd5b5f6040820190506127335f830185611d3e565b6127406020830184611e49565b939250505056fea26469706673582212200b2b8836c7b0b0a3aa772aaf3687406f897ea2458f5e30a7a3b160967987f78164736f6c63430008180033",
  "linkReferences": {},
  "deployedLinkReferences": {}
}